{
  "abi": [
    {
      "inputs": [
        {
          "internalType": "uint256",
          "name": "_hackathonStartTime",
          "type": "uint256"
        },
        {
          "internalType": "uint256",
          "name": "_hackathonEndTime",
          "type": "uint256"
        }
      ],
      "stateMutability": "nonpayable",
      "type": "constructor"
    },
    {
      "inputs": [
        {
          "internalType": "address",
          "name": "_captain",
          "type": "address"
        }
      ],
      "name": "declareWinner",
      "outputs": [
        {
          "internalType": "bool",
          "name": "",
          "type": "bool"
        }
      ],
      "stateMutability": "view",
      "type": "function"
    },
    {
      "inputs": [],
      "name": "hackathonAdmin",
      "outputs": [
        {
          "internalType": "address",
          "name": "",
          "type": "address"
        }
      ],
      "stateMutability": "view",
      "type": "function"
    },
    {
      "inputs": [],
      "name": "hackathonEndTime",
      "outputs": [
        {
          "internalType": "uint256",
          "name": "",
          "type": "uint256"
        }
      ],
      "stateMutability": "view",
      "type": "function"
    },
    {
      "inputs": [],
      "name": "hackathonStartTime",
      "outputs": [
        {
          "internalType": "uint256",
          "name": "",
          "type": "uint256"
        }
      ],
      "stateMutability": "view",
      "type": "function"
    },
    {
      "inputs": [
        {
          "internalType": "address",
          "name": "",
          "type": "address"
        }
      ],
      "name": "hackersByAddress",
      "outputs": [
        {
          "internalType": "address",
          "name": "teamCaptain",
          "type": "address"
        },
        {
          "internalType": "enum Hackathon.Role",
          "name": "role",
          "type": "uint8"
        }
      ],
      "stateMutability": "view",
      "type": "function"
    },
    {
      "inputs": [
        {
          "internalType": "address",
          "name": "",
          "type": "address"
        }
      ],
      "name": "isHacker",
      "outputs": [
        {
          "internalType": "bool",
          "name": "",
          "type": "bool"
        }
      ],
      "stateMutability": "view",
      "type": "function"
    },
    {
      "inputs": [
        {
          "internalType": "address",
          "name": "_hacker",
          "type": "address"
        }
      ],
      "name": "isOnTeam",
      "outputs": [
        {
          "internalType": "bool",
          "name": "",
          "type": "bool"
        }
      ],
      "stateMutability": "view",
      "type": "function"
    },
    {
      "inputs": [
        {
          "internalType": "enum Hackathon.Role",
          "name": "_roll",
          "type": "uint8"
        }
      ],
      "name": "registerAsCaptain",
      "outputs": [
        {
          "internalType": "bool",
          "name": "",
          "type": "bool"
        }
      ],
      "stateMutability": "nonpayable",
      "type": "function"
    },
    {
      "inputs": [
        {
          "internalType": "enum Hackathon.Role",
          "name": "_roll",
          "type": "uint8"
        }
      ],
      "name": "registerAsHacker",
      "outputs": [
        {
          "internalType": "bool",
          "name": "",
          "type": "bool"
        }
      ],
      "stateMutability": "nonpayable",
      "type": "function"
    },
    {
      "inputs": [
        {
          "internalType": "address",
          "name": "_hacker",
          "type": "address"
        }
      ],
      "name": "removeTeamMember",
      "outputs": [
        {
          "internalType": "bool",
          "name": "",
          "type": "bool"
        }
      ],
      "stateMutability": "nonpayable",
      "type": "function"
    },
    {
      "inputs": [
        {
          "internalType": "address",
          "name": "_hacker",
          "type": "address"
        }
      ],
      "name": "selectTeamMember",
      "outputs": [
        {
          "internalType": "bool",
          "name": "",
          "type": "bool"
        }
      ],
      "stateMutability": "nonpayable",
      "type": "function"
    },
    {
      "inputs": [
        {
          "internalType": "uint256",
          "name": "",
          "type": "uint256"
        }
      ],
      "name": "teams",
      "outputs": [
        {
          "internalType": "address",
          "name": "captainAddress",
          "type": "address"
        },
        {
          "internalType": "address",
          "name": "developer1",
          "type": "address"
        },
        {
          "internalType": "address",
          "name": "developer2",
          "type": "address"
        },
        {
          "internalType": "address",
          "name": "designer",
          "type": "address"
        },
        {
          "internalType": "address",
          "name": "productManager",
          "type": "address"
        },
        {
          "internalType": "bool",
          "name": "winner",
          "type": "bool"
        }
      ],
      "stateMutability": "view",
      "type": "function"
    },
    {
      "inputs": [
        {
          "internalType": "address",
          "name": "",
          "type": "address"
        }
      ],
      "name": "teamsByCaptain",
      "outputs": [
        {
          "internalType": "address",
          "name": "captainAddress",
          "type": "address"
        },
        {
          "internalType": "address",
          "name": "developer1",
          "type": "address"
        },
        {
          "internalType": "address",
          "name": "developer2",
          "type": "address"
        },
        {
          "internalType": "address",
          "name": "designer",
          "type": "address"
        },
        {
          "internalType": "address",
          "name": "productManager",
          "type": "address"
        },
        {
          "internalType": "bool",
          "name": "winner",
          "type": "bool"
        }
      ],
      "stateMutability": "view",
      "type": "function"
    }
  ],
  "bytecode": {
    "object": "0x608060405234801561001057600080fd5b5060405161111a38038061111a83398101604081905261002f9161004f565b600080546001600160a01b03191633179055600191909155600255610073565b6000806040838503121561006257600080fd5b505080516020909101519092909150565b611098806100826000396000f3fe608060405234801561001057600080fd5b50600436106100cf5760003560e01c80637e101f781161008c578063ad15d42211610066578063ad15d42214610211578063b360650014610224578063b9670c541461027e578063db33f4f8146102a957600080fd5b80637e101f78146101a85780639c044754146101bb578063a9a7d7e9146101fe57600080fd5b80630a71e6fb146100d457806314eba026146100f05780633ed2b77a146101135780636ead1acb146101695780636f9a73ad14610172578063746c35e614610195575b600080fd5b6100dd60015481565b6040519081526020015b60405180910390f35b6101036100fe366004610f38565b6102bc565b60405190151581526020016100e7565b610126610121366004610f68565b6104de565b604080516001600160a01b0397881681529587166020870152938616938501939093529084166060840152909216608082015290151560a082015260c0016100e7565b6100dd60025481565b610103610180366004610f38565b60046020526000908152604090205460ff1681565b6101036101a3366004610f38565b61053f565b6101036101b6366004610f81565b610570565b6101f06101c9366004610f38565b6005602052600090815260409020546001600160a01b03811690600160a01b900460ff1682565b6040516100e7929190610fb8565b61010361020c366004610f81565b6106a1565b61010361021f366004610f38565b6109ad565b610126610232366004610f38565b600660205260009081526040902080546001820154600283015460038401546004909401546001600160a01b03938416949284169391821692821691811690600160a01b900460ff1686565b600054610291906001600160a01b031681565b6040516001600160a01b0390911681526020016100e7565b6101036102b7366004610f38565b610e0d565b6000600154421061032e5760405162461bcd60e51b815260206004820152603160248201527f436f6e666572656e63652068617320737461727465642c2063616e6e6f74207260448201527032b6b7bb32903a32b0b69036b2b6b132b960791b60648201526084015b60405180910390fd5b336000818152600660205260409020546001600160a01b03161461038e5760405162461bcd60e51b815260206004820152601760248201527621b0b63632b91034b9903737ba10309031b0b83a30b4b760491b6044820152606401610325565b6001600160a01b038281166000908152600660205260409020541633146104025760405162461bcd60e51b815260206004820152602260248201527f4861636b6572206973206e6f74206f6e207468652063616c6c65722773207465604482015261616d60f01b6064820152608401610325565b506001600160a01b03908116600081815260056020908152604080832080546001600160a01b0319908116909155815160c081018352848152808401858152818401868152606083018781526080840188815260a08501898152998952600690975294909620915182549089169084161782555160018281018054928a1692851692909217909155945160028201805491891691841691909117905591516003830180549188169190921617905590516004909101805493511515600160a01b026001600160a81b031990941691909416179190911790915590565b600781815481106104ee57600080fd5b6000918252602090912060059091020180546001820154600283015460038401546004909401546001600160a01b03938416955091831693908316929081169190811690600160a01b900460ff1686565b6001600160a01b0381811660009081526005602052604081205490911661056757600061056a565b60015b92915050565b3360009081526004602052604081205460ff16156105d05760405162461bcd60e51b815260206004820152601c60248201527f4861636b657220697320616c72656164792072656769737465726564000000006044820152606401610325565b6000604051806040016040528060006001600160a01b031681526020018460028111156105ff576105ff610fa2565b9052336000908152600560209081526040909120825181546001600160a01b03919091166001600160a01b0319821681178355928401519394508493919283916001600160a81b03191617600160a01b83600281111561066157610661610fa2565b021790555050600380549150600061067883610ff3565b9091555050336000908152600460205260409020805460ff191660019081179091559392505050565b6000600380546106b1919061101a565b600754106106f55760405162461bcd60e51b8152602060048201526011602482015270546f6f206d616e79206361707461696e7360781b6044820152606401610325565b3360009081526004602052604090205460ff166107545760405162461bcd60e51b815260206004820152601c60248201527f4861636b657220697320616c72656164792072656769737465726564000000006044820152606401610325565b6040805160c081018252338152600060208201819052918101829052606081018290526080810182905260a081018290529083600281111561079857610798610fa2565b036107a8573360208201526107ec565b60018360028111156107bc576107bc610fa2565b036107cc573360608201526107ec565b60028360028111156107e0576107e0610fa2565b036107ec573360808201525b6007805460018082018355600092835283517fa66cc928b5edb82af9bd49922954155ab7b0942694bea4ce44661d9a8736c688600590930292830180546001600160a01b03199081166001600160a01b0393841617909155602080870180517fa66cc928b5edb82af9bd49922954155ab7b0942694bea4ce44661d9a8736c689870180548516918616919091179055604080890180517fa66cc928b5edb82af9bd49922954155ab7b0942694bea4ce44661d9a8736c68a89018054871691881691909117905560608a0180517fa66cc928b5edb82af9bd49922954155ab7b0942694bea4ce44661d9a8736c68b8a018054881691891691909117905560808b0180517fa66cc928b5edb82af9bd49922954155ab7b0942694bea4ce44661d9a8736c68c909a01805460a08e0180519c8b166001600160a81b031992831617600160a01b9d15158e0217909255338d52600690975293909a209a518b548716908816178b5592518a8801805487169188169190911790555160028a018054861691871691909117905590516003890180549094169085161790925594516004909601805491519690921694169390931793151590910292909217905592915050565b3360008181526006602052604081205490916001600160a01b0390911614610a115760405162461bcd60e51b815260206004820152601760248201527621b0b63632b91034b9903737ba10309031b0b83a30b4b760491b6044820152606401610325565b6001600160a01b03821660009081526004602052604090205460ff16610a795760405162461bcd60e51b815260206004820152601860248201527f4861636b6572206973206e6f74207265676973746572656400000000000000006044820152606401610325565b6001600160a01b0382811660009081526005602052604090205416610ae05760405162461bcd60e51b815260206004820152601b60248201527f4861636b657220697320616c7265616479206f6e2061207465616d00000000006044820152606401610325565b60006001600160a01b038316600090815260056020526040902054600160a01b900460ff166002811115610b1657610b16610fa2565b03610bf857336000908152600660205260409020600101546001600160a01b03161580610b5c5750336000908152600660205260409020600201546001600160a01b0316155b610b785760405162461bcd60e51b81526004016103259061103c565b336000908152600660205260409020600101546001600160a01b0316610bc85733600090815260066020526040902060010180546001600160a01b0319166001600160a01b038416179055610d3c565b33600090815260066020526040902060020180546001600160a01b0319166001600160a01b038416179055610d3c565b60016001600160a01b038316600090815260056020526040902054600160a01b900460ff166002811115610c2e57610c2e610fa2565b03610c9c57336000908152600660205260409020600301546001600160a01b031615610c6c5760405162461bcd60e51b81526004016103259061103c565b33600090815260066020526040902060030180546001600160a01b0319166001600160a01b038416179055610d3c565b60026001600160a01b038316600090815260056020526040902054600160a01b900460ff166002811115610cd257610cd2610fa2565b03610d3c57336000908152600660205260409020600401546001600160a01b031615610d105760405162461bcd60e51b81526004016103259061103c565b33600090815260066020526040902060040180546001600160a01b0319166001600160a01b0384161790555b506001600160a01b03908116600081815260056020908152604080832080546001600160a01b031990811633908117909255908452600690925280832093835290912082548154831690851617815560018381015482820180548516918716919091179055600280850154908301805485169187169190911790556003808501549083018054851691871691909117905560049384018054949092018054938416949095169384178555905460ff600160a01b91829004161515026001600160a81b03199092169092171790915590565b600080546001600160a01b03163314610e725760405162461bcd60e51b815260206004820152602160248201527f43616c6c6572206973206e6f7420746865206861636b6174686f6e2061646d696044820152603760f91b6064820152608401610325565b6002544211610ec35760405162461bcd60e51b815260206004820152601b60248201527f4861636b6174686f6e20686173206e6f7420656e6465642079657400000000006044820152606401610325565b6001600160a01b03808316600081815260066020526040902054909116146105675760405162461bcd60e51b815260206004820152602260248201527f41646472657373206e6f74206173736f63696174656420776974682061207465604482015261616d60f01b6064820152608401610325565b600060208284031215610f4a57600080fd5b81356001600160a01b0381168114610f6157600080fd5b9392505050565b600060208284031215610f7a57600080fd5b5035919050565b600060208284031215610f9357600080fd5b813560038110610f6157600080fd5b634e487b7160e01b600052602160045260246000fd5b6001600160a01b03831681526040810160038310610fe657634e487b7160e01b600052602160045260246000fd5b8260208301529392505050565b60006001820161101357634e487b7160e01b600052601160045260246000fd5b5060010190565b60008261103757634e487b7160e01b600052601260045260246000fd5b500490565b6020808252600c908201526b1519585b481a5cc8199d5b1b60a21b60408201526060019056fea26469706673582212208bbc17fa4ff734da022d029225b4d67d65eff66f71ed1fcb433f6e142b2f65de64736f6c63430008130033",
    "linkReferences": {}
  },
  "methodIdentifiers": {
    "declareWinner(address)": "db33f4f8",
    "hackathonAdmin()": "b9670c54",
    "hackathonEndTime()": "6ead1acb",
    "hackathonStartTime()": "0a71e6fb",
    "hackersByAddress(address)": "9c044754",
    "isHacker(address)": "6f9a73ad",
    "isOnTeam(address)": "746c35e6",
    "registerAsCaptain(uint8)": "a9a7d7e9",
    "registerAsHacker(uint8)": "7e101f78",
    "removeTeamMember(address)": "14eba026",
    "selectTeamMember(address)": "ad15d422",
    "teams(uint256)": "3ed2b77a",
    "teamsByCaptain(address)": "b3606500"
  },
  "id": 0
}