{
  "abi": [
    {
      "inputs": [
        {
          "internalType": "uint256",
          "name": "_hackathonStartTime",
          "type": "uint256"
        },
        {
          "internalType": "uint256",
          "name": "_hackathonEndTime",
          "type": "uint256"
        }
      ],
      "stateMutability": "nonpayable",
      "type": "constructor"
    },
    {
      "inputs": [
        {
          "internalType": "address",
          "name": "_captain",
          "type": "address"
        }
      ],
      "name": "declareWinner",
      "outputs": [
        {
          "internalType": "bool",
          "name": "",
          "type": "bool"
        }
      ],
      "stateMutability": "view",
      "type": "function"
    },
    {
      "inputs": [
        {
          "internalType": "address",
          "name": "_hacker",
          "type": "address"
        }
      ],
      "name": "getDevelopersRequired",
      "outputs": [
        {
          "internalType": "uint256",
          "name": "",
          "type": "uint256"
        }
      ],
      "stateMutability": "view",
      "type": "function"
    },
    {
      "inputs": [
        {
          "internalType": "address",
          "name": "_hacker",
          "type": "address"
        }
      ],
      "name": "getTeamByCaptain",
      "outputs": [
        {
          "components": [
            {
              "internalType": "address",
              "name": "captainAddress",
              "type": "address"
            },
            {
              "internalType": "address",
              "name": "developer1",
              "type": "address"
            },
            {
              "internalType": "address",
              "name": "developer2",
              "type": "address"
            },
            {
              "internalType": "address",
              "name": "designer",
              "type": "address"
            },
            {
              "internalType": "address",
              "name": "productManager",
              "type": "address"
            },
            {
              "internalType": "bool",
              "name": "winner",
              "type": "bool"
            }
          ],
          "internalType": "struct Hackathon.Team",
          "name": "",
          "type": "tuple"
        }
      ],
      "stateMutability": "view",
      "type": "function"
    },
    {
      "inputs": [],
      "name": "hackathonAdmin",
      "outputs": [
        {
          "internalType": "address",
          "name": "",
          "type": "address"
        }
      ],
      "stateMutability": "view",
      "type": "function"
    },
    {
      "inputs": [],
      "name": "hackathonEndTime",
      "outputs": [
        {
          "internalType": "uint256",
          "name": "",
          "type": "uint256"
        }
      ],
      "stateMutability": "view",
      "type": "function"
    },
    {
      "inputs": [],
      "name": "hackathonStartTime",
      "outputs": [
        {
          "internalType": "uint256",
          "name": "",
          "type": "uint256"
        }
      ],
      "stateMutability": "view",
      "type": "function"
    },
    {
      "inputs": [
        {
          "internalType": "address",
          "name": "",
          "type": "address"
        }
      ],
      "name": "hackersByAddress",
      "outputs": [
        {
          "internalType": "address",
          "name": "teamCaptain",
          "type": "address"
        },
        {
          "internalType": "enum Hackathon.Role",
          "name": "role",
          "type": "uint8"
        }
      ],
      "stateMutability": "view",
      "type": "function"
    },
    {
      "inputs": [
        {
          "internalType": "address",
          "name": "",
          "type": "address"
        }
      ],
      "name": "isHacker",
      "outputs": [
        {
          "internalType": "bool",
          "name": "",
          "type": "bool"
        }
      ],
      "stateMutability": "view",
      "type": "function"
    },
    {
      "inputs": [
        {
          "internalType": "address",
          "name": "_hacker",
          "type": "address"
        }
      ],
      "name": "isOnTeam",
      "outputs": [
        {
          "internalType": "bool",
          "name": "",
          "type": "bool"
        }
      ],
      "stateMutability": "view",
      "type": "function"
    },
    {
      "inputs": [
        {
          "internalType": "address",
          "name": "_hacker",
          "type": "address"
        }
      ],
      "name": "isWinner",
      "outputs": [
        {
          "internalType": "bool",
          "name": "",
          "type": "bool"
        }
      ],
      "stateMutability": "view",
      "type": "function"
    },
    {
      "inputs": [
        {
          "internalType": "enum Hackathon.Role",
          "name": "_roll",
          "type": "uint8"
        }
      ],
      "name": "registerAsCaptain",
      "outputs": [
        {
          "internalType": "bool",
          "name": "",
          "type": "bool"
        }
      ],
      "stateMutability": "nonpayable",
      "type": "function"
    },
    {
      "inputs": [
        {
          "internalType": "enum Hackathon.Role",
          "name": "_roll",
          "type": "uint8"
        }
      ],
      "name": "registerAsHacker",
      "outputs": [
        {
          "internalType": "bool",
          "name": "",
          "type": "bool"
        }
      ],
      "stateMutability": "nonpayable",
      "type": "function"
    },
    {
      "inputs": [
        {
          "internalType": "address",
          "name": "_hacker",
          "type": "address"
        }
      ],
      "name": "removeTeamMember",
      "outputs": [
        {
          "internalType": "bool",
          "name": "",
          "type": "bool"
        }
      ],
      "stateMutability": "nonpayable",
      "type": "function"
    },
    {
      "inputs": [
        {
          "internalType": "address",
          "name": "_hacker",
          "type": "address"
        }
      ],
      "name": "selectTeamMember",
      "outputs": [
        {
          "internalType": "bool",
          "name": "",
          "type": "bool"
        }
      ],
      "stateMutability": "nonpayable",
      "type": "function"
    },
    {
      "inputs": [
        {
          "internalType": "address",
          "name": "_hacker",
          "type": "address"
        }
      ],
      "name": "teamRequiresDesigner",
      "outputs": [
        {
          "internalType": "bool",
          "name": "",
          "type": "bool"
        }
      ],
      "stateMutability": "view",
      "type": "function"
    },
    {
      "inputs": [
        {
          "internalType": "address",
          "name": "_hacker",
          "type": "address"
        }
      ],
      "name": "teamRequiresProductManager",
      "outputs": [
        {
          "internalType": "bool",
          "name": "",
          "type": "bool"
        }
      ],
      "stateMutability": "view",
      "type": "function"
    },
    {
      "inputs": [
        {
          "internalType": "uint256",
          "name": "",
          "type": "uint256"
        }
      ],
      "name": "teams",
      "outputs": [
        {
          "internalType": "address",
          "name": "captainAddress",
          "type": "address"
        },
        {
          "internalType": "address",
          "name": "developer1",
          "type": "address"
        },
        {
          "internalType": "address",
          "name": "developer2",
          "type": "address"
        },
        {
          "internalType": "address",
          "name": "designer",
          "type": "address"
        },
        {
          "internalType": "address",
          "name": "productManager",
          "type": "address"
        },
        {
          "internalType": "bool",
          "name": "winner",
          "type": "bool"
        }
      ],
      "stateMutability": "view",
      "type": "function"
    },
    {
      "inputs": [
        {
          "internalType": "address",
          "name": "",
          "type": "address"
        }
      ],
      "name": "teamsByCaptain",
      "outputs": [
        {
          "internalType": "address",
          "name": "captainAddress",
          "type": "address"
        },
        {
          "internalType": "address",
          "name": "developer1",
          "type": "address"
        },
        {
          "internalType": "address",
          "name": "developer2",
          "type": "address"
        },
        {
          "internalType": "address",
          "name": "designer",
          "type": "address"
        },
        {
          "internalType": "address",
          "name": "productManager",
          "type": "address"
        },
        {
          "internalType": "bool",
          "name": "winner",
          "type": "bool"
        }
      ],
      "stateMutability": "view",
      "type": "function"
    }
  ],
  "bytecode": {
    "object": "0x608060405234801561001057600080fd5b5060405161153538038061153583398101604081905261002f9161004f565b600080546001600160a01b03191633179055600191909155600255610073565b6000806040838503121561006257600080fd5b505080516020909101519092909150565b6114b3806100826000396000f3fe608060405234801561001057600080fd5b50600436106101165760003560e01c806389b3d661116100a2578063a9a7d7e911610071578063a9a7d7e9146103c0578063ad15d422146103d3578063b3606500146103e6578063b9670c5414610440578063db33f4f81461046b57600080fd5b806389b3d661146102435780639c044754146103575780639d9ca28d1461039a578063a09fd05e146103ad57600080fd5b80636a81d8ec116100e95780636a81d8ec146101c35780636ead1acb146101d65780636f9a73ad146101df578063746c35e6146102025780637e101f781461023057600080fd5b80630a71e6fb1461011b57806314eba026146101375780633ed2b77a1461015a5780636172b628146101b0575b600080fd5b61012460015481565b6040519081526020015b60405180910390f35b61014a61014536600461133f565b61047e565b604051901515815260200161012e565b61016d610168366004611368565b6106a0565b604080516001600160a01b0397881681529587166020870152938616938501939093529084166060840152909216608082015290151560a082015260c00161012e565b6101246101be36600461133f565b610701565b61014a6101d136600461133f565b610779565b61012460025481565b61014a6101ed36600461133f565b60046020526000908152604090205460ff1681565b61014a61021036600461133f565b6001600160a01b0390811660009081526005602052604090205416151590565b61014a61023e366004611381565b6107ae565b6102fa61025136600461133f565b6040805160c081018252600080825260208201819052918101829052606081018290526080810182905260a0810191909152506001600160a01b03908116600090815260066020908152604091829020825160c081018452815485168152600182015485169281019290925260028101548416928201929092526003820154831660608201526004909101549182166080820152600160a01b90910460ff16151560a082015290565b60405161012e919081516001600160a01b0390811682526020808401518216908301526040808401518216908301526060808401518216908301526080808401519091169082015260a09182015115159181019190915260c00190565b61038c61036536600461133f565b6005602052600090815260409020546001600160a01b03811690600160a01b900460ff1682565b60405161012e9291906113b8565b61014a6103a836600461133f565b6108df565b61014a6103bb36600461133f565b6109d2565b61014a6103ce366004611381565b6109fe565b61014a6103e136600461133f565b610db4565b61016d6103f436600461133f565b600660205260009081526040902080546001820154600283015460038401546004909401546001600160a01b03938416949284169391821692821691811690600160a01b900460ff1686565b600054610453906001600160a01b031681565b6040516001600160a01b03909116815260200161012e565b61014a61047936600461133f565b611214565b600060015442106104f05760405162461bcd60e51b815260206004820152603160248201527f436f6e666572656e63652068617320737461727465642c2063616e6e6f74207260448201527032b6b7bb32903a32b0b69036b2b6b132b960791b60648201526084015b60405180910390fd5b336000818152600660205260409020546001600160a01b0316146105505760405162461bcd60e51b815260206004820152601760248201527621b0b63632b91034b9903737ba10309031b0b83a30b4b760491b60448201526064016104e7565b6001600160a01b038281166000908152600660205260409020541633146105c45760405162461bcd60e51b815260206004820152602260248201527f4861636b6572206973206e6f74206f6e207468652063616c6c65722773207465604482015261616d60f01b60648201526084016104e7565b506001600160a01b03908116600081815260056020908152604080832080546001600160a01b0319908116909155815160c081018352848152808401858152818401868152606083018781526080840188815260a08501898152998952600690975294909620915182549089169084161782555160018281018054928a1692851692909217909155945160028201805491891691841691909117905591516003830180549188169190921617905590516004909101805493511515600160a01b026001600160a81b031990941691909416179190911790915590565b600781815481106106b057600080fd5b6000918252602090912060059091020180546001820154600283015460038401546004909401546001600160a01b03938416955091831693908316929081169190811690600160a01b900460ff1686565b6001600160a01b03818116600090815260066020526040812060010154909182911615610736578061073281611409565b9150505b6001600160a01b038381166000908152600660205260409020600201541615610767578061076381611409565b9150505b610772816002611422565b9392505050565b6001600160a01b03818116600090815260066020526040812060030154909116156107a55760006107a8565b60015b92915050565b3360009081526004602052604081205460ff161561080e5760405162461bcd60e51b815260206004820152601c60248201527f4861636b657220697320616c726561647920726567697374657265640000000060448201526064016104e7565b6000604051806040016040528060006001600160a01b0316815260200184600281111561083d5761083d6113a2565b9052336000908152600560209081526040909120825181546001600160a01b03919091166001600160a01b0319821681178355928401519394508493919283916001600160a81b03191617600160a01b83600281111561089f5761089f6113a2565b02179055505060038054915060006108b683611409565b9091555050336000908152600460205260409020805460ff191660019081179091559392505050565b600060025442116109325760405162461bcd60e51b815260206004820152601b60248201527f4861636b6174686f6e20686173206e6f7420656e64656420796574000000000060448201526064016104e7565b6001600160a01b03828116600090815260056020526040902054166109995760405162461bcd60e51b815260206004820152601760248201527f4861636b6572206973206e6f74206f6e2061207465616d00000000000000000060448201526064016104e7565b506001600160a01b039081166000908152600560209081526040808320549093168252600690522060040154600160a01b900460ff1690565b6001600160a01b03818116600090815260066020526040812060040154909116156107a55760006107a8565b600060038054610a0e9190611435565b60075410610a525760405162461bcd60e51b8152602060048201526011602482015270546f6f206d616e79206361707461696e7360781b60448201526064016104e7565b3360009081526004602052604090205460ff1615610ab25760405162461bcd60e51b815260206004820152601c60248201527f4861636b657220697320616c726561647920726567697374657265640000000060448201526064016104e7565b6040805160c081018252338152600060208201819052918101829052606081018290526080810182905260a0810182905290836002811115610af657610af66113a2565b03610b0657336020820152610b4a565b6001836002811115610b1a57610b1a6113a2565b03610b2a57336060820152610b4a565b6002836002811115610b3e57610b3e6113a2565b03610b4a573360808201525b6007805460018082018355600092835283517fa66cc928b5edb82af9bd49922954155ab7b0942694bea4ce44661d9a8736c688600590930292830180546001600160a01b03199081166001600160a01b0393841617909155602080870180517fa66cc928b5edb82af9bd49922954155ab7b0942694bea4ce44661d9a8736c689870180548516918616919091179055604080890180517fa66cc928b5edb82af9bd49922954155ab7b0942694bea4ce44661d9a8736c68a89018054871691881691909117905560608a0180517fa66cc928b5edb82af9bd49922954155ab7b0942694bea4ce44661d9a8736c68b8a018054881691891691909117905560808b0180517fa66cc928b5edb82af9bd49922954155ab7b0942694bea4ce44661d9a8736c68c909a01805460a08e0180519c8b166001600160a81b031992831617600160a01b9d15158e021790925533808e5260068952868e208f5181548c16908d1617815597519b880180548b169c8c169c909c17909b559351600280880180548b16928c16929092179091559251600387018054909916908a1617909755516004909401805496519490971695909116949094179115159096021790925583518085019094529183528201908690811115610d2657610d266113a2565b9052336000908152600560209081526040909120825181546001600160a01b03919091166001600160a01b0319821681178355928401519394508493919283916001600160a81b03191617600160a01b836002811115610d8857610d886113a2565b021790555050336000908152600460205260409020805460ff1916600190811790915595945050505050565b3360008181526006602052604081205490916001600160a01b0390911614610e185760405162461bcd60e51b815260206004820152601760248201527621b0b63632b91034b9903737ba10309031b0b83a30b4b760491b60448201526064016104e7565b6001600160a01b03821660009081526004602052604090205460ff16610e805760405162461bcd60e51b815260206004820152601860248201527f4861636b6572206973206e6f742072656769737465726564000000000000000060448201526064016104e7565b6001600160a01b0382811660009081526005602052604090205416610ee75760405162461bcd60e51b815260206004820152601b60248201527f4861636b657220697320616c7265616479206f6e2061207465616d000000000060448201526064016104e7565b60006001600160a01b038316600090815260056020526040902054600160a01b900460ff166002811115610f1d57610f1d6113a2565b03610fff57336000908152600660205260409020600101546001600160a01b03161580610f635750336000908152600660205260409020600201546001600160a01b0316155b610f7f5760405162461bcd60e51b81526004016104e790611457565b336000908152600660205260409020600101546001600160a01b0316610fcf5733600090815260066020526040902060010180546001600160a01b0319166001600160a01b038416179055611143565b33600090815260066020526040902060020180546001600160a01b0319166001600160a01b038416179055611143565b60016001600160a01b038316600090815260056020526040902054600160a01b900460ff166002811115611035576110356113a2565b036110a357336000908152600660205260409020600301546001600160a01b0316156110735760405162461bcd60e51b81526004016104e790611457565b33600090815260066020526040902060030180546001600160a01b0319166001600160a01b038416179055611143565b60026001600160a01b038316600090815260056020526040902054600160a01b900460ff1660028111156110d9576110d96113a2565b0361114357336000908152600660205260409020600401546001600160a01b0316156111175760405162461bcd60e51b81526004016104e790611457565b33600090815260066020526040902060040180546001600160a01b0319166001600160a01b0384161790555b506001600160a01b03908116600081815260056020908152604080832080546001600160a01b031990811633908117909255908452600690925280832093835290912082548154831690851617815560018381015482820180548516918716919091179055600280850154908301805485169187169190911790556003808501549083018054851691871691909117905560049384018054949092018054938416949095169384178555905460ff600160a01b91829004161515026001600160a81b03199092169092171790915590565b600080546001600160a01b031633146112795760405162461bcd60e51b815260206004820152602160248201527f43616c6c6572206973206e6f7420746865206861636b6174686f6e2061646d696044820152603760f91b60648201526084016104e7565b60025442116112ca5760405162461bcd60e51b815260206004820152601b60248201527f4861636b6174686f6e20686173206e6f7420656e64656420796574000000000060448201526064016104e7565b6001600160a01b03808316600081815260066020526040902054909116146107a55760405162461bcd60e51b815260206004820152602260248201527f41646472657373206e6f74206173736f63696174656420776974682061207465604482015261616d60f01b60648201526084016104e7565b60006020828403121561135157600080fd5b81356001600160a01b038116811461077257600080fd5b60006020828403121561137a57600080fd5b5035919050565b60006020828403121561139357600080fd5b81356003811061077257600080fd5b634e487b7160e01b600052602160045260246000fd5b6001600160a01b038316815260408101600383106113e657634e487b7160e01b600052602160045260246000fd5b8260208301529392505050565b634e487b7160e01b600052601160045260246000fd5b60006001820161141b5761141b6113f3565b5060010190565b818103818111156107a8576107a86113f3565b60008261145257634e487b7160e01b600052601260045260246000fd5b500490565b6020808252600c908201526b1519585b481a5cc8199d5b1b60a21b60408201526060019056fea2646970667358221220b9730d4b08ee7ed31adff4825851bb032bf0a4f928692ea7d68a2b165b90110264736f6c63430008130033",
    "linkReferences": {}
  },
  "methodIdentifiers": {
    "declareWinner(address)": "db33f4f8",
    "getDevelopersRequired(address)": "6172b628",
    "getTeamByCaptain(address)": "89b3d661",
    "hackathonAdmin()": "b9670c54",
    "hackathonEndTime()": "6ead1acb",
    "hackathonStartTime()": "0a71e6fb",
    "hackersByAddress(address)": "9c044754",
    "isHacker(address)": "6f9a73ad",
    "isOnTeam(address)": "746c35e6",
    "isWinner(address)": "9d9ca28d",
    "registerAsCaptain(uint8)": "a9a7d7e9",
    "registerAsHacker(uint8)": "7e101f78",
    "removeTeamMember(address)": "14eba026",
    "selectTeamMember(address)": "ad15d422",
    "teamRequiresDesigner(address)": "6a81d8ec",
    "teamRequiresProductManager(address)": "a09fd05e",
    "teams(uint256)": "3ed2b77a",
    "teamsByCaptain(address)": "b3606500"
  },
  "id": 16
}